{
	"contracts/Counter.sol": {
		"ProposalContract": {
			"abi": [
				{
					"inputs": [
						{
							"internalType": "string",
							"name": "_title",
							"type": "string"
						},
						{
							"internalType": "string",
							"name": "_description",
							"type": "string"
						},
						{
							"internalType": "uint256",
							"name": "_total_vote_to_end",
							"type": "uint256"
						}
					],
					"name": "create",
					"outputs": [],
					"stateMutability": "nonpayable",
					"type": "function"
				}
			],
			"devdoc": {
				"kind": "dev",
				"methods": {},
				"version": 1
			},
			"evm": {
				"assembly": "    /* \"contracts/Counter.sol\":61:1283  contract ProposalContract {... */\n  mstore(0x40, 0x80)\n  callvalue\n  dup1\n  iszero\n  tag_1\n  jumpi\n  0x00\n  dup1\n  revert\ntag_1:\n  pop\n  dataSize(sub_0)\n  dup1\n  dataOffset(sub_0)\n  0x00\n  codecopy\n  0x00\n  return\nstop\n\nsub_0: assembly {\n        /* \"contracts/Counter.sol\":61:1283  contract ProposalContract {... */\n      mstore(0x40, 0x80)\n      callvalue\n      dup1\n      iszero\n      tag_1\n      jumpi\n      0x00\n      dup1\n      revert\n    tag_1:\n      pop\n      jumpi(tag_2, lt(calldatasize, 0x04))\n      shr(0xe0, calldataload(0x00))\n      dup1\n      0x3ca6d100\n      eq\n      tag_3\n      jumpi\n    tag_2:\n      0x00\n      dup1\n      revert\n        /* \"contracts/Counter.sol\":826:1280  function create(string calldata _title, string calldata _description, uint256 _total_vote_to_end) external {... */\n    tag_3:\n      tag_4\n      0x04\n      dup1\n      calldatasize\n      sub\n      dup2\n      add\n      swap1\n      tag_5\n      swap2\n      swap1\n      tag_6\n      jump\t// in\n    tag_5:\n      tag_7\n      jump\t// in\n    tag_4:\n      stop\n    tag_7:\n        /* \"contracts/Counter.sol\":955:956  1 */\n      0x01\n        /* \"contracts/Counter.sol\":944:951  counter */\n      0x00\n      dup1\n        /* \"contracts/Counter.sol\":944:956  counter += 1 */\n      dup3\n      dup3\n      sload\n      tag_9\n      swap2\n      swap1\n      tag_10\n      jump\t// in\n    tag_9:\n      swap3\n      pop\n      pop\n      dup2\n      swap1\n      sstore\n      pop\n        /* \"contracts/Counter.sol\":995:1272  Proposal({... */\n      mload(0x40)\n      dup1\n      0x0100\n      add\n      0x40\n      mstore\n      dup1\n        /* \"contracts/Counter.sol\":1026:1032  _title */\n      dup7\n      dup7\n        /* \"contracts/Counter.sol\":995:1272  Proposal({... */\n      dup1\n      dup1\n      0x1f\n      add\n      0x20\n      dup1\n      swap2\n      div\n      mul\n      0x20\n      add\n      mload(0x40)\n      swap1\n      dup2\n      add\n      0x40\n      mstore\n      dup1\n      swap4\n      swap3\n      swap2\n      swap1\n      dup2\n      dup2\n      mstore\n      0x20\n      add\n      dup4\n      dup4\n      dup1\n      dup3\n      dup5\n      calldatacopy\n      0x00\n      dup2\n      dup5\n      add\n      mstore\n      not(0x1f)\n      0x1f\n      dup3\n      add\n      and\n      swap1\n      pop\n      dup1\n      dup4\n      add\n      swap3\n      pop\n      pop\n      pop\n      pop\n      pop\n      pop\n      pop\n      dup2\n      mstore\n      0x20\n      add\n        /* \"contracts/Counter.sol\":1060:1072  _description */\n      dup5\n      dup5\n        /* \"contracts/Counter.sol\":995:1272  Proposal({... */\n      dup1\n      dup1\n      0x1f\n      add\n      0x20\n      dup1\n      swap2\n      div\n      mul\n      0x20\n      add\n      mload(0x40)\n      swap1\n      dup2\n      add\n      0x40\n      mstore\n      dup1\n      swap4\n      swap3\n      swap2\n      swap1\n      dup2\n      dup2\n      mstore\n      0x20\n      add\n      dup4\n      dup4\n      dup1\n      dup3\n      dup5\n      calldatacopy\n      0x00\n      dup2\n      dup5\n      add\n      mstore\n      not(0x1f)\n      0x1f\n      dup3\n      add\n      and\n      swap1\n      pop\n      dup1\n      dup4\n      add\n      swap3\n      pop\n      pop\n      pop\n      pop\n      pop\n      pop\n      pop\n      dup2\n      mstore\n      0x20\n      add\n        /* \"contracts/Counter.sol\":1096:1097  0 */\n      0x00\n        /* \"contracts/Counter.sol\":995:1272  Proposal({... */\n      dup2\n      mstore\n      0x20\n      add\n        /* \"contracts/Counter.sol\":1120:1121  0 */\n      0x00\n        /* \"contracts/Counter.sol\":995:1272  Proposal({... */\n      dup2\n      mstore\n      0x20\n      add\n        /* \"contracts/Counter.sol\":1142:1143  0 */\n      0x00\n        /* \"contracts/Counter.sol\":995:1272  Proposal({... */\n      dup2\n      mstore\n      0x20\n      add\n        /* \"contracts/Counter.sol\":1177:1195  _total_vote_to_end */\n      dup3\n        /* \"contracts/Counter.sol\":995:1272  Proposal({... */\n      dup2\n      mstore\n      0x20\n      add\n        /* \"contracts/Counter.sol\":1225:1230  false */\n      0x00\n        /* \"contracts/Counter.sol\":995:1272  Proposal({... */\n      iszero\n      iszero\n      dup2\n      mstore\n      0x20\n      add\n        /* \"contracts/Counter.sol\":1256:1260  true */\n      0x01\n        /* \"contracts/Counter.sol\":995:1272  Proposal({... */\n      iszero\n      iszero\n      dup2\n      mstore\n      pop\n        /* \"contracts/Counter.sol\":967:983  proposal_history */\n      0x01\n        /* \"contracts/Counter.sol\":967:992  proposal_history[counter] */\n      0x00\n        /* \"contracts/Counter.sol\":984:991  counter */\n      dup1\n      sload\n        /* \"contracts/Counter.sol\":967:992  proposal_history[counter] */\n      dup2\n      mstore\n      0x20\n      add\n      swap1\n      dup2\n      mstore\n      0x20\n      add\n      0x00\n      keccak256\n        /* \"contracts/Counter.sol\":967:1272  proposal_history[counter] = Proposal({... */\n      0x00\n      dup3\n      add\n      mload\n      dup2\n      0x00\n      add\n      swap1\n      dup2\n      tag_11\n      swap2\n      swap1\n      tag_12\n      jump\t// in\n    tag_11:\n      pop\n      0x20\n      dup3\n      add\n      mload\n      dup2\n      0x01\n      add\n      swap1\n      dup2\n      tag_13\n      swap2\n      swap1\n      tag_12\n      jump\t// in\n    tag_13:\n      pop\n      0x40\n      dup3\n      add\n      mload\n      dup2\n      0x02\n      add\n      sstore\n      0x60\n      dup3\n      add\n      mload\n      dup2\n      0x03\n      add\n      sstore\n      0x80\n      dup3\n      add\n      mload\n      dup2\n      0x04\n      add\n      sstore\n      0xa0\n      dup3\n      add\n      mload\n      dup2\n      0x05\n      add\n      sstore\n      0xc0\n      dup3\n      add\n      mload\n      dup2\n      0x06\n      add\n      exp(0x0100, 0x00)\n      dup2\n      sload\n      dup2\n      0xff\n      mul\n      not\n      and\n      swap1\n      dup4\n      iszero\n      iszero\n      mul\n      or\n      swap1\n      sstore\n      pop\n      0xe0\n      dup3\n      add\n      mload\n      dup2\n      0x06\n      add\n      exp(0x0100, 0x01)\n      dup2\n      sload\n      dup2\n      0xff\n      mul\n      not\n      and\n      swap1\n      dup4\n      iszero\n      iszero\n      mul\n      or\n      swap1\n      sstore\n      pop\n      swap1\n      pop\n      pop\n        /* \"contracts/Counter.sol\":826:1280  function create(string calldata _title, string calldata _description, uint256 _total_vote_to_end) external {... */\n      pop\n      pop\n      pop\n      pop\n      pop\n      jump\t// out\n        /* \"#utility.yul\":88:205   */\n    tag_15:\n        /* \"#utility.yul\":197:198   */\n      0x00\n        /* \"#utility.yul\":194:195   */\n      dup1\n        /* \"#utility.yul\":187:199   */\n      revert\n        /* \"#utility.yul\":211:328   */\n    tag_16:\n        /* \"#utility.yul\":320:321   */\n      0x00\n        /* \"#utility.yul\":317:318   */\n      dup1\n        /* \"#utility.yul\":310:322   */\n      revert\n        /* \"#utility.yul\":334:451   */\n    tag_17:\n        /* \"#utility.yul\":443:444   */\n      0x00\n        /* \"#utility.yul\":440:441   */\n      dup1\n        /* \"#utility.yul\":433:445   */\n      revert\n        /* \"#utility.yul\":457:574   */\n    tag_18:\n        /* \"#utility.yul\":566:567   */\n      0x00\n        /* \"#utility.yul\":563:564   */\n      dup1\n        /* \"#utility.yul\":556:568   */\n      revert\n        /* \"#utility.yul\":580:697   */\n    tag_19:\n        /* \"#utility.yul\":689:690   */\n      0x00\n        /* \"#utility.yul\":686:687   */\n      dup1\n        /* \"#utility.yul\":679:691   */\n      revert\n        /* \"#utility.yul\":717:1270   */\n    tag_20:\n        /* \"#utility.yul\":775:783   */\n      0x00\n        /* \"#utility.yul\":785:791   */\n      dup1\n        /* \"#utility.yul\":835:838   */\n      dup4\n        /* \"#utility.yul\":828:832   */\n      0x1f\n        /* \"#utility.yul\":820:826   */\n      dup5\n        /* \"#utility.yul\":816:833   */\n      add\n        /* \"#utility.yul\":812:839   */\n      slt\n        /* \"#utility.yul\":802:924   */\n      tag_52\n      jumpi\n        /* \"#utility.yul\":843:922   */\n      tag_53\n      tag_17\n      jump\t// in\n    tag_53:\n        /* \"#utility.yul\":802:924   */\n    tag_52:\n        /* \"#utility.yul\":956:962   */\n      dup3\n        /* \"#utility.yul\":943:963   */\n      calldataload\n        /* \"#utility.yul\":933:963   */\n      swap1\n      pop\n        /* \"#utility.yul\":986:1004   */\n      0xffffffffffffffff\n        /* \"#utility.yul\":978:984   */\n      dup2\n        /* \"#utility.yul\":975:1005   */\n      gt\n        /* \"#utility.yul\":972:1089   */\n      iszero\n      tag_54\n      jumpi\n        /* \"#utility.yul\":1008:1087   */\n      tag_55\n      tag_18\n      jump\t// in\n    tag_55:\n        /* \"#utility.yul\":972:1089   */\n    tag_54:\n        /* \"#utility.yul\":1122:1126   */\n      0x20\n        /* \"#utility.yul\":1114:1120   */\n      dup4\n        /* \"#utility.yul\":1110:1127   */\n      add\n        /* \"#utility.yul\":1098:1127   */\n      swap2\n      pop\n        /* \"#utility.yul\":1176:1179   */\n      dup4\n        /* \"#utility.yul\":1168:1172   */\n      0x01\n        /* \"#utility.yul\":1160:1166   */\n      dup3\n        /* \"#utility.yul\":1156:1173   */\n      mul\n        /* \"#utility.yul\":1146:1154   */\n      dup4\n        /* \"#utility.yul\":1142:1174   */\n      add\n        /* \"#utility.yul\":1139:1180   */\n      gt\n        /* \"#utility.yul\":1136:1264   */\n      iszero\n      tag_56\n      jumpi\n        /* \"#utility.yul\":1183:1262   */\n      tag_57\n      tag_19\n      jump\t// in\n    tag_57:\n        /* \"#utility.yul\":1136:1264   */\n    tag_56:\n        /* \"#utility.yul\":717:1270   */\n      swap3\n      pop\n      swap3\n      swap1\n      pop\n      jump\t// out\n        /* \"#utility.yul\":1276:1353   */\n    tag_21:\n        /* \"#utility.yul\":1313:1320   */\n      0x00\n        /* \"#utility.yul\":1342:1347   */\n      dup2\n        /* \"#utility.yul\":1331:1347   */\n      swap1\n      pop\n        /* \"#utility.yul\":1276:1353   */\n      swap2\n      swap1\n      pop\n      jump\t// out\n        /* \"#utility.yul\":1359:1481   */\n    tag_22:\n        /* \"#utility.yul\":1432:1456   */\n      tag_60\n        /* \"#utility.yul\":1450:1455   */\n      dup2\n        /* \"#utility.yul\":1432:1456   */\n      tag_21\n      jump\t// in\n    tag_60:\n        /* \"#utility.yul\":1425:1430   */\n      dup2\n        /* \"#utility.yul\":1422:1457   */\n      eq\n        /* \"#utility.yul\":1412:1475   */\n      tag_61\n      jumpi\n        /* \"#utility.yul\":1471:1472   */\n      0x00\n        /* \"#utility.yul\":1468:1469   */\n      dup1\n        /* \"#utility.yul\":1461:1473   */\n      revert\n        /* \"#utility.yul\":1412:1475   */\n    tag_61:\n        /* \"#utility.yul\":1359:1481   */\n      pop\n      jump\t// out\n        /* \"#utility.yul\":1487:1626   */\n    tag_23:\n        /* \"#utility.yul\":1533:1538   */\n      0x00\n        /* \"#utility.yul\":1571:1577   */\n      dup2\n        /* \"#utility.yul\":1558:1578   */\n      calldataload\n        /* \"#utility.yul\":1549:1578   */\n      swap1\n      pop\n        /* \"#utility.yul\":1587:1620   */\n      tag_63\n        /* \"#utility.yul\":1614:1619   */\n      dup2\n        /* \"#utility.yul\":1587:1620   */\n      tag_22\n      jump\t// in\n    tag_63:\n        /* \"#utility.yul\":1487:1626   */\n      swap3\n      swap2\n      pop\n      pop\n      jump\t// out\n        /* \"#utility.yul\":1632:2651   */\n    tag_6:\n        /* \"#utility.yul\":1733:1739   */\n      0x00\n        /* \"#utility.yul\":1741:1747   */\n      dup1\n        /* \"#utility.yul\":1749:1755   */\n      0x00\n        /* \"#utility.yul\":1757:1763   */\n      dup1\n        /* \"#utility.yul\":1765:1771   */\n      0x00\n        /* \"#utility.yul\":1814:1816   */\n      0x60\n        /* \"#utility.yul\":1802:1811   */\n      dup7\n        /* \"#utility.yul\":1793:1800   */\n      dup9\n        /* \"#utility.yul\":1789:1812   */\n      sub\n        /* \"#utility.yul\":1785:1817   */\n      slt\n        /* \"#utility.yul\":1782:1901   */\n      iszero\n      tag_65\n      jumpi\n        /* \"#utility.yul\":1820:1899   */\n      tag_66\n      tag_15\n      jump\t// in\n    tag_66:\n        /* \"#utility.yul\":1782:1901   */\n    tag_65:\n        /* \"#utility.yul\":1968:1969   */\n      0x00\n        /* \"#utility.yul\":1957:1966   */\n      dup7\n        /* \"#utility.yul\":1953:1970   */\n      add\n        /* \"#utility.yul\":1940:1971   */\n      calldataload\n        /* \"#utility.yul\":1998:2016   */\n      0xffffffffffffffff\n        /* \"#utility.yul\":1990:1996   */\n      dup2\n        /* \"#utility.yul\":1987:2017   */\n      gt\n        /* \"#utility.yul\":1984:2101   */\n      iszero\n      tag_67\n      jumpi\n        /* \"#utility.yul\":2020:2099   */\n      tag_68\n      tag_16\n      jump\t// in\n    tag_68:\n        /* \"#utility.yul\":1984:2101   */\n    tag_67:\n        /* \"#utility.yul\":2133:2198   */\n      tag_69\n        /* \"#utility.yul\":2190:2197   */\n      dup9\n        /* \"#utility.yul\":2181:2187   */\n      dup3\n        /* \"#utility.yul\":2170:2179   */\n      dup10\n        /* \"#utility.yul\":2166:2188   */\n      add\n        /* \"#utility.yul\":2133:2198   */\n      tag_20\n      jump\t// in\n    tag_69:\n        /* \"#utility.yul\":2115:2198   */\n      swap6\n      pop\n      swap6\n      pop\n        /* \"#utility.yul\":1911:2208   */\n      pop\n        /* \"#utility.yul\":2275:2277   */\n      0x20\n        /* \"#utility.yul\":2264:2273   */\n      dup7\n        /* \"#utility.yul\":2260:2278   */\n      add\n        /* \"#utility.yul\":2247:2279   */\n      calldataload\n        /* \"#utility.yul\":2306:2324   */\n      0xffffffffffffffff\n        /* \"#utility.yul\":2298:2304   */\n      dup2\n        /* \"#utility.yul\":2295:2325   */\n      gt\n        /* \"#utility.yul\":2292:2409   */\n      iszero\n      tag_70\n      jumpi\n        /* \"#utility.yul\":2328:2407   */\n      tag_71\n      tag_16\n      jump\t// in\n    tag_71:\n        /* \"#utility.yul\":2292:2409   */\n    tag_70:\n        /* \"#utility.yul\":2441:2506   */\n      tag_72\n        /* \"#utility.yul\":2498:2505   */\n      dup9\n        /* \"#utility.yul\":2489:2495   */\n      dup3\n        /* \"#utility.yul\":2478:2487   */\n      dup10\n        /* \"#utility.yul\":2474:2496   */\n      add\n        /* \"#utility.yul\":2441:2506   */\n      tag_20\n      jump\t// in\n    tag_72:\n        /* \"#utility.yul\":2423:2506   */\n      swap4\n      pop\n      swap4\n      pop\n        /* \"#utility.yul\":2218:2516   */\n      pop\n        /* \"#utility.yul\":2555:2557   */\n      0x40\n        /* \"#utility.yul\":2581:2634   */\n      tag_73\n        /* \"#utility.yul\":2626:2633   */\n      dup9\n        /* \"#utility.yul\":2617:2623   */\n      dup3\n        /* \"#utility.yul\":2606:2615   */\n      dup10\n        /* \"#utility.yul\":2602:2624   */\n      add\n        /* \"#utility.yul\":2581:2634   */\n      tag_23\n      jump\t// in\n    tag_73:\n        /* \"#utility.yul\":2571:2634   */\n      swap2\n      pop\n        /* \"#utility.yul\":2526:2644   */\n      pop\n        /* \"#utility.yul\":1632:2651   */\n      swap3\n      swap6\n      pop\n      swap3\n      swap6\n      swap1\n      swap4\n      pop\n      jump\t// out\n        /* \"#utility.yul\":2657:2837   */\n    tag_24:\n        /* \"#utility.yul\":2705:2782   */\n      0x4e487b7100000000000000000000000000000000000000000000000000000000\n        /* \"#utility.yul\":2702:2703   */\n      0x00\n        /* \"#utility.yul\":2695:2783   */\n      mstore\n        /* \"#utility.yul\":2802:2806   */\n      0x11\n        /* \"#utility.yul\":2799:2800   */\n      0x04\n        /* \"#utility.yul\":2792:2807   */\n      mstore\n        /* \"#utility.yul\":2826:2830   */\n      0x24\n        /* \"#utility.yul\":2823:2824   */\n      0x00\n        /* \"#utility.yul\":2816:2831   */\n      revert\n        /* \"#utility.yul\":2843:3034   */\n    tag_10:\n        /* \"#utility.yul\":2883:2886   */\n      0x00\n        /* \"#utility.yul\":2902:2922   */\n      tag_76\n        /* \"#utility.yul\":2920:2921   */\n      dup3\n        /* \"#utility.yul\":2902:2922   */\n      tag_21\n      jump\t// in\n    tag_76:\n        /* \"#utility.yul\":2897:2922   */\n      swap2\n      pop\n        /* \"#utility.yul\":2936:2956   */\n      tag_77\n        /* \"#utility.yul\":2954:2955   */\n      dup4\n        /* \"#utility.yul\":2936:2956   */\n      tag_21\n      jump\t// in\n    tag_77:\n        /* \"#utility.yul\":2931:2956   */\n      swap3\n      pop\n        /* \"#utility.yul\":2979:2980   */\n      dup3\n        /* \"#utility.yul\":2976:2977   */\n      dup3\n        /* \"#utility.yul\":2972:2981   */\n      add\n        /* \"#utility.yul\":2965:2981   */\n      swap1\n      pop\n        /* \"#utility.yul\":3000:3003   */\n      dup1\n        /* \"#utility.yul\":2997:2998   */\n      dup3\n        /* \"#utility.yul\":2994:3004   */\n      gt\n        /* \"#utility.yul\":2991:3027   */\n      iszero\n      tag_78\n      jumpi\n        /* \"#utility.yul\":3007:3025   */\n      tag_79\n      tag_24\n      jump\t// in\n    tag_79:\n        /* \"#utility.yul\":2991:3027   */\n    tag_78:\n        /* \"#utility.yul\":2843:3034   */\n      swap3\n      swap2\n      pop\n      pop\n      jump\t// out\n        /* \"#utility.yul\":3040:3139   */\n    tag_25:\n        /* \"#utility.yul\":3092:3098   */\n      0x00\n        /* \"#utility.yul\":3126:3131   */\n      dup2\n        /* \"#utility.yul\":3120:3132   */\n      mload\n        /* \"#utility.yul\":3110:3132   */\n      swap1\n      pop\n        /* \"#utility.yul\":3040:3139   */\n      swap2\n      swap1\n      pop\n      jump\t// out\n        /* \"#utility.yul\":3145:3325   */\n    tag_26:\n        /* \"#utility.yul\":3193:3270   */\n      0x4e487b7100000000000000000000000000000000000000000000000000000000\n        /* \"#utility.yul\":3190:3191   */\n      0x00\n        /* \"#utility.yul\":3183:3271   */\n      mstore\n        /* \"#utility.yul\":3290:3294   */\n      0x41\n        /* \"#utility.yul\":3287:3288   */\n      0x04\n        /* \"#utility.yul\":3280:3295   */\n      mstore\n        /* \"#utility.yul\":3314:3318   */\n      0x24\n        /* \"#utility.yul\":3311:3312   */\n      0x00\n        /* \"#utility.yul\":3304:3319   */\n      revert\n        /* \"#utility.yul\":3331:3511   */\n    tag_27:\n        /* \"#utility.yul\":3379:3456   */\n      0x4e487b7100000000000000000000000000000000000000000000000000000000\n        /* \"#utility.yul\":3376:3377   */\n      0x00\n        /* \"#utility.yul\":3369:3457   */\n      mstore\n        /* \"#utility.yul\":3476:3480   */\n      0x22\n        /* \"#utility.yul\":3473:3474   */\n      0x04\n        /* \"#utility.yul\":3466:3481   */\n      mstore\n        /* \"#utility.yul\":3500:3504   */\n      0x24\n        /* \"#utility.yul\":3497:3498   */\n      0x00\n        /* \"#utility.yul\":3490:3505   */\n      revert\n        /* \"#utility.yul\":3517:3837   */\n    tag_28:\n        /* \"#utility.yul\":3561:3567   */\n      0x00\n        /* \"#utility.yul\":3598:3599   */\n      0x02\n        /* \"#utility.yul\":3592:3596   */\n      dup3\n        /* \"#utility.yul\":3588:3600   */\n      div\n        /* \"#utility.yul\":3578:3600   */\n      swap1\n      pop\n        /* \"#utility.yul\":3645:3646   */\n      0x01\n        /* \"#utility.yul\":3639:3643   */\n      dup3\n        /* \"#utility.yul\":3635:3647   */\n      and\n        /* \"#utility.yul\":3666:3684   */\n      dup1\n        /* \"#utility.yul\":3656:3737   */\n      tag_84\n      jumpi\n        /* \"#utility.yul\":3722:3726   */\n      0x7f\n        /* \"#utility.yul\":3714:3720   */\n      dup3\n        /* \"#utility.yul\":3710:3727   */\n      and\n        /* \"#utility.yul\":3700:3727   */\n      swap2\n      pop\n        /* \"#utility.yul\":3656:3737   */\n    tag_84:\n        /* \"#utility.yul\":3784:3786   */\n      0x20\n        /* \"#utility.yul\":3776:3782   */\n      dup3\n        /* \"#utility.yul\":3773:3787   */\n      lt\n        /* \"#utility.yul\":3753:3771   */\n      dup2\n        /* \"#utility.yul\":3750:3788   */\n      sub\n        /* \"#utility.yul\":3747:3831   */\n      tag_85\n      jumpi\n        /* \"#utility.yul\":3803:3821   */\n      tag_86\n      tag_27\n      jump\t// in\n    tag_86:\n        /* \"#utility.yul\":3747:3831   */\n    tag_85:\n        /* \"#utility.yul\":3568:3837   */\n      pop\n        /* \"#utility.yul\":3517:3837   */\n      swap2\n      swap1\n      pop\n      jump\t// out\n        /* \"#utility.yul\":3843:3984   */\n    tag_29:\n        /* \"#utility.yul\":3892:3896   */\n      0x00\n        /* \"#utility.yul\":3915:3918   */\n      dup2\n        /* \"#utility.yul\":3907:3918   */\n      swap1\n      pop\n        /* \"#utility.yul\":3938:3941   */\n      dup2\n        /* \"#utility.yul\":3935:3936   */\n      0x00\n        /* \"#utility.yul\":3928:3942   */\n      mstore\n        /* \"#utility.yul\":3972:3976   */\n      0x20\n        /* \"#utility.yul\":3969:3970   */\n      0x00\n        /* \"#utility.yul\":3959:3977   */\n      keccak256\n        /* \"#utility.yul\":3951:3977   */\n      swap1\n      pop\n        /* \"#utility.yul\":3843:3984   */\n      swap2\n      swap1\n      pop\n      jump\t// out\n        /* \"#utility.yul\":3990:4083   */\n    tag_30:\n        /* \"#utility.yul\":4027:4033   */\n      0x00\n        /* \"#utility.yul\":4074:4076   */\n      0x20\n        /* \"#utility.yul\":4069:4071   */\n      0x1f\n        /* \"#utility.yul\":4062:4067   */\n      dup4\n        /* \"#utility.yul\":4058:4072   */\n      add\n        /* \"#utility.yul\":4054:4077   */\n      div\n        /* \"#utility.yul\":4044:4077   */\n      swap1\n      pop\n        /* \"#utility.yul\":3990:4083   */\n      swap2\n      swap1\n      pop\n      jump\t// out\n        /* \"#utility.yul\":4089:4196   */\n    tag_31:\n        /* \"#utility.yul\":4133:4141   */\n      0x00\n        /* \"#utility.yul\":4183:4188   */\n      dup3\n        /* \"#utility.yul\":4177:4181   */\n      dup3\n        /* \"#utility.yul\":4173:4189   */\n      shl\n        /* \"#utility.yul\":4152:4189   */\n      swap1\n      pop\n        /* \"#utility.yul\":4089:4196   */\n      swap3\n      swap2\n      pop\n      pop\n      jump\t// out\n        /* \"#utility.yul\":4202:4595   */\n    tag_32:\n        /* \"#utility.yul\":4271:4277   */\n      0x00\n        /* \"#utility.yul\":4321:4322   */\n      0x08\n        /* \"#utility.yul\":4309:4319   */\n      dup4\n        /* \"#utility.yul\":4305:4323   */\n      mul\n        /* \"#utility.yul\":4344:4441   */\n      tag_91\n        /* \"#utility.yul\":4374:4440   */\n      0xffffffffffffffffffffffffffffffffffffffffffffffffffffffffffffffff\n        /* \"#utility.yul\":4363:4372   */\n      dup3\n        /* \"#utility.yul\":4344:4441   */\n      tag_31\n      jump\t// in\n    tag_91:\n        /* \"#utility.yul\":4462:4501   */\n      tag_92\n        /* \"#utility.yul\":4492:4500   */\n      dup7\n        /* \"#utility.yul\":4481:4490   */\n      dup4\n        /* \"#utility.yul\":4462:4501   */\n      tag_31\n      jump\t// in\n    tag_92:\n        /* \"#utility.yul\":4450:4501   */\n      swap6\n      pop\n        /* \"#utility.yul\":4534:4538   */\n      dup1\n        /* \"#utility.yul\":4530:4539   */\n      not\n        /* \"#utility.yul\":4523:4528   */\n      dup5\n        /* \"#utility.yul\":4519:4540   */\n      and\n        /* \"#utility.yul\":4510:4540   */\n      swap4\n      pop\n        /* \"#utility.yul\":4583:4587   */\n      dup1\n        /* \"#utility.yul\":4573:4581   */\n      dup7\n        /* \"#utility.yul\":4569:4588   */\n      and\n        /* \"#utility.yul\":4562:4567   */\n      dup5\n        /* \"#utility.yul\":4559:4589   */\n      or\n        /* \"#utility.yul\":4549:4589   */\n      swap3\n      pop\n        /* \"#utility.yul\":4278:4595   */\n      pop\n      pop\n        /* \"#utility.yul\":4202:4595   */\n      swap4\n      swap3\n      pop\n      pop\n      pop\n      jump\t// out\n        /* \"#utility.yul\":4601:4661   */\n    tag_33:\n        /* \"#utility.yul\":4629:4632   */\n      0x00\n        /* \"#utility.yul\":4650:4655   */\n      dup2\n        /* \"#utility.yul\":4643:4655   */\n      swap1\n      pop\n        /* \"#utility.yul\":4601:4661   */\n      swap2\n      swap1\n      pop\n      jump\t// out\n        /* \"#utility.yul\":4667:4809   */\n    tag_34:\n        /* \"#utility.yul\":4717:4726   */\n      0x00\n        /* \"#utility.yul\":4750:4803   */\n      tag_95\n        /* \"#utility.yul\":4768:4802   */\n      tag_96\n        /* \"#utility.yul\":4777:4801   */\n      tag_97\n        /* \"#utility.yul\":4795:4800   */\n      dup5\n        /* \"#utility.yul\":4777:4801   */\n      tag_21\n      jump\t// in\n    tag_97:\n        /* \"#utility.yul\":4768:4802   */\n      tag_33\n      jump\t// in\n    tag_96:\n        /* \"#utility.yul\":4750:4803   */\n      tag_21\n      jump\t// in\n    tag_95:\n        /* \"#utility.yul\":4737:4803   */\n      swap1\n      pop\n        /* \"#utility.yul\":4667:4809   */\n      swap2\n      swap1\n      pop\n      jump\t// out\n        /* \"#utility.yul\":4815:4890   */\n    tag_35:\n        /* \"#utility.yul\":4858:4861   */\n      0x00\n        /* \"#utility.yul\":4879:4884   */\n      dup2\n        /* \"#utility.yul\":4872:4884   */\n      swap1\n      pop\n        /* \"#utility.yul\":4815:4890   */\n      swap2\n      swap1\n      pop\n      jump\t// out\n        /* \"#utility.yul\":4896:5165   */\n    tag_36:\n        /* \"#utility.yul\":5006:5045   */\n      tag_100\n        /* \"#utility.yul\":5037:5044   */\n      dup4\n        /* \"#utility.yul\":5006:5045   */\n      tag_34\n      jump\t// in\n    tag_100:\n        /* \"#utility.yul\":5067:5158   */\n      tag_101\n        /* \"#utility.yul\":5116:5157   */\n      tag_102\n        /* \"#utility.yul\":5140:5156   */\n      dup3\n        /* \"#utility.yul\":5116:5157   */\n      tag_35\n      jump\t// in\n    tag_102:\n        /* \"#utility.yul\":5108:5114   */\n      dup5\n        /* \"#utility.yul\":5101:5105   */\n      dup5\n        /* \"#utility.yul\":5095:5106   */\n      sload\n        /* \"#utility.yul\":5067:5158   */\n      tag_32\n      jump\t// in\n    tag_101:\n        /* \"#utility.yul\":5061:5065   */\n      dup3\n        /* \"#utility.yul\":5054:5159   */\n      sstore\n        /* \"#utility.yul\":4972:5165   */\n      pop\n        /* \"#utility.yul\":4896:5165   */\n      pop\n      pop\n      pop\n      jump\t// out\n        /* \"#utility.yul\":5171:5244   */\n    tag_37:\n        /* \"#utility.yul\":5216:5219   */\n      0x00\n        /* \"#utility.yul\":5171:5244   */\n      swap1\n      jump\t// out\n        /* \"#utility.yul\":5250:5439   */\n    tag_38:\n        /* \"#utility.yul\":5327:5359   */\n      tag_105\n      tag_37\n      jump\t// in\n    tag_105:\n        /* \"#utility.yul\":5368:5433   */\n      tag_106\n        /* \"#utility.yul\":5426:5432   */\n      dup2\n        /* \"#utility.yul\":5418:5424   */\n      dup5\n        /* \"#utility.yul\":5412:5416   */\n      dup5\n        /* \"#utility.yul\":5368:5433   */\n      tag_36\n      jump\t// in\n    tag_106:\n        /* \"#utility.yul\":5303:5439   */\n      pop\n        /* \"#utility.yul\":5250:5439   */\n      pop\n      pop\n      jump\t// out\n        /* \"#utility.yul\":5445:5631   */\n    tag_39:\n        /* \"#utility.yul\":5505:5625   */\n    tag_108:\n        /* \"#utility.yul\":5522:5525   */\n      dup2\n        /* \"#utility.yul\":5515:5520   */\n      dup2\n        /* \"#utility.yul\":5512:5526   */\n      lt\n        /* \"#utility.yul\":5505:5625   */\n      iszero\n      tag_110\n      jumpi\n        /* \"#utility.yul\":5576:5615   */\n      tag_111\n        /* \"#utility.yul\":5613:5614   */\n      0x00\n        /* \"#utility.yul\":5606:5611   */\n      dup3\n        /* \"#utility.yul\":5576:5615   */\n      tag_38\n      jump\t// in\n    tag_111:\n        /* \"#utility.yul\":5549:5550   */\n      0x01\n        /* \"#utility.yul\":5542:5547   */\n      dup2\n        /* \"#utility.yul\":5538:5551   */\n      add\n        /* \"#utility.yul\":5529:5551   */\n      swap1\n      pop\n        /* \"#utility.yul\":5505:5625   */\n      jump(tag_108)\n    tag_110:\n        /* \"#utility.yul\":5445:5631   */\n      pop\n      pop\n      jump\t// out\n        /* \"#utility.yul\":5637:6180   */\n    tag_40:\n        /* \"#utility.yul\":5738:5740   */\n      0x1f\n        /* \"#utility.yul\":5733:5736   */\n      dup3\n        /* \"#utility.yul\":5730:5741   */\n      gt\n        /* \"#utility.yul\":5727:6173   */\n      iszero\n      tag_113\n      jumpi\n        /* \"#utility.yul\":5772:5810   */\n      tag_114\n        /* \"#utility.yul\":5804:5809   */\n      dup2\n        /* \"#utility.yul\":5772:5810   */\n      tag_29\n      jump\t// in\n    tag_114:\n        /* \"#utility.yul\":5856:5885   */\n      tag_115\n        /* \"#utility.yul\":5874:5884   */\n      dup5\n        /* \"#utility.yul\":5856:5885   */\n      tag_30\n      jump\t// in\n    tag_115:\n        /* \"#utility.yul\":5846:5854   */\n      dup2\n        /* \"#utility.yul\":5842:5886   */\n      add\n        /* \"#utility.yul\":6039:6041   */\n      0x20\n        /* \"#utility.yul\":6027:6037   */\n      dup6\n        /* \"#utility.yul\":6024:6042   */\n      lt\n        /* \"#utility.yul\":6021:6070   */\n      iszero\n      tag_116\n      jumpi\n        /* \"#utility.yul\":6060:6068   */\n      dup2\n        /* \"#utility.yul\":6045:6068   */\n      swap1\n      pop\n        /* \"#utility.yul\":6021:6070   */\n    tag_116:\n        /* \"#utility.yul\":6083:6163   */\n      tag_117\n        /* \"#utility.yul\":6139:6161   */\n      tag_118\n        /* \"#utility.yul\":6157:6160   */\n      dup6\n        /* \"#utility.yul\":6139:6161   */\n      tag_30\n      jump\t// in\n    tag_118:\n        /* \"#utility.yul\":6129:6137   */\n      dup4\n        /* \"#utility.yul\":6125:6162   */\n      add\n        /* \"#utility.yul\":6112:6123   */\n      dup3\n        /* \"#utility.yul\":6083:6163   */\n      tag_39\n      jump\t// in\n    tag_117:\n        /* \"#utility.yul\":5742:6173   */\n      pop\n      pop\n        /* \"#utility.yul\":5727:6173   */\n    tag_113:\n        /* \"#utility.yul\":5637:6180   */\n      pop\n      pop\n      pop\n      jump\t// out\n        /* \"#utility.yul\":6186:6303   */\n    tag_41:\n        /* \"#utility.yul\":6240:6248   */\n      0x00\n        /* \"#utility.yul\":6290:6295   */\n      dup3\n        /* \"#utility.yul\":6284:6288   */\n      dup3\n        /* \"#utility.yul\":6280:6296   */\n      shr\n        /* \"#utility.yul\":6259:6296   */\n      swap1\n      pop\n        /* \"#utility.yul\":6186:6303   */\n      swap3\n      swap2\n      pop\n      pop\n      jump\t// out\n        /* \"#utility.yul\":6309:6478   */\n    tag_42:\n        /* \"#utility.yul\":6353:6359   */\n      0x00\n        /* \"#utility.yul\":6386:6437   */\n      tag_121\n        /* \"#utility.yul\":6434:6435   */\n      0x00\n        /* \"#utility.yul\":6430:6436   */\n      not\n        /* \"#utility.yul\":6422:6427   */\n      dup5\n        /* \"#utility.yul\":6419:6420   */\n      0x08\n        /* \"#utility.yul\":6415:6428   */\n      mul\n        /* \"#utility.yul\":6386:6437   */\n      tag_41\n      jump\t// in\n    tag_121:\n        /* \"#utility.yul\":6382:6438   */\n      not\n        /* \"#utility.yul\":6467:6471   */\n      dup1\n        /* \"#utility.yul\":6461:6465   */\n      dup4\n        /* \"#utility.yul\":6457:6472   */\n      and\n        /* \"#utility.yul\":6447:6472   */\n      swap2\n      pop\n        /* \"#utility.yul\":6360:6478   */\n      pop\n        /* \"#utility.yul\":6309:6478   */\n      swap3\n      swap2\n      pop\n      pop\n      jump\t// out\n        /* \"#utility.yul\":6483:6778   */\n    tag_43:\n        /* \"#utility.yul\":6559:6563   */\n      0x00\n        /* \"#utility.yul\":6705:6734   */\n      tag_123\n        /* \"#utility.yul\":6730:6733   */\n      dup4\n        /* \"#utility.yul\":6724:6728   */\n      dup4\n        /* \"#utility.yul\":6705:6734   */\n      tag_42\n      jump\t// in\n    tag_123:\n        /* \"#utility.yul\":6697:6734   */\n      swap2\n      pop\n        /* \"#utility.yul\":6767:6770   */\n      dup3\n        /* \"#utility.yul\":6764:6765   */\n      0x02\n        /* \"#utility.yul\":6760:6771   */\n      mul\n        /* \"#utility.yul\":6754:6758   */\n      dup3\n        /* \"#utility.yul\":6751:6772   */\n      or\n        /* \"#utility.yul\":6743:6772   */\n      swap1\n      pop\n        /* \"#utility.yul\":6483:6778   */\n      swap3\n      swap2\n      pop\n      pop\n      jump\t// out\n        /* \"#utility.yul\":6783:8178   */\n    tag_12:\n        /* \"#utility.yul\":6900:6937   */\n      tag_125\n        /* \"#utility.yul\":6933:6936   */\n      dup3\n        /* \"#utility.yul\":6900:6937   */\n      tag_25\n      jump\t// in\n    tag_125:\n        /* \"#utility.yul\":7002:7020   */\n      0xffffffffffffffff\n        /* \"#utility.yul\":6994:7000   */\n      dup2\n        /* \"#utility.yul\":6991:7021   */\n      gt\n        /* \"#utility.yul\":6988:7044   */\n      iszero\n      tag_126\n      jumpi\n        /* \"#utility.yul\":7024:7042   */\n      tag_127\n      tag_26\n      jump\t// in\n    tag_127:\n        /* \"#utility.yul\":6988:7044   */\n    tag_126:\n        /* \"#utility.yul\":7068:7106   */\n      tag_128\n        /* \"#utility.yul\":7100:7104   */\n      dup3\n        /* \"#utility.yul\":7094:7105   */\n      sload\n        /* \"#utility.yul\":7068:7106   */\n      tag_28\n      jump\t// in\n    tag_128:\n        /* \"#utility.yul\":7153:7220   */\n      tag_129\n        /* \"#utility.yul\":7213:7219   */\n      dup3\n        /* \"#utility.yul\":7205:7211   */\n      dup3\n        /* \"#utility.yul\":7199:7203   */\n      dup6\n        /* \"#utility.yul\":7153:7220   */\n      tag_40\n      jump\t// in\n    tag_129:\n        /* \"#utility.yul\":7247:7248   */\n      0x00\n        /* \"#utility.yul\":7271:7275   */\n      0x20\n        /* \"#utility.yul\":7258:7275   */\n      swap1\n      pop\n        /* \"#utility.yul\":7303:7305   */\n      0x1f\n        /* \"#utility.yul\":7295:7301   */\n      dup4\n        /* \"#utility.yul\":7292:7306   */\n      gt\n        /* \"#utility.yul\":7320:7321   */\n      0x01\n        /* \"#utility.yul\":7315:7933   */\n      dup2\n      eq\n      tag_131\n      jumpi\n        /* \"#utility.yul\":7977:7978   */\n      0x00\n        /* \"#utility.yul\":7994:8000   */\n      dup5\n        /* \"#utility.yul\":7991:8068   */\n      iszero\n      tag_132\n      jumpi\n        /* \"#utility.yul\":8043:8052   */\n      dup3\n        /* \"#utility.yul\":8038:8041   */\n      dup8\n        /* \"#utility.yul\":8034:8053   */\n      add\n        /* \"#utility.yul\":8028:8054   */\n      mload\n        /* \"#utility.yul\":8019:8054   */\n      swap1\n      pop\n        /* \"#utility.yul\":7991:8068   */\n    tag_132:\n        /* \"#utility.yul\":8094:8161   */\n      tag_133\n        /* \"#utility.yul\":8154:8160   */\n      dup6\n        /* \"#utility.yul\":8147:8152   */\n      dup3\n        /* \"#utility.yul\":8094:8161   */\n      tag_43\n      jump\t// in\n    tag_133:\n        /* \"#utility.yul\":8088:8092   */\n      dup7\n        /* \"#utility.yul\":8081:8162   */\n      sstore\n        /* \"#utility.yul\":7950:8172   */\n      pop\n        /* \"#utility.yul\":7285:8172   */\n      jump(tag_130)\n        /* \"#utility.yul\":7315:7933   */\n    tag_131:\n        /* \"#utility.yul\":7367:7371   */\n      0x1f\n        /* \"#utility.yul\":7363:7372   */\n      not\n        /* \"#utility.yul\":7355:7361   */\n      dup5\n        /* \"#utility.yul\":7351:7373   */\n      and\n        /* \"#utility.yul\":7401:7438   */\n      tag_134\n        /* \"#utility.yul\":7433:7437   */\n      dup7\n        /* \"#utility.yul\":7401:7438   */\n      tag_29\n      jump\t// in\n    tag_134:\n        /* \"#utility.yul\":7460:7461   */\n      0x00\n        /* \"#utility.yul\":7474:7682   */\n    tag_135:\n        /* \"#utility.yul\":7488:7495   */\n      dup3\n        /* \"#utility.yul\":7485:7486   */\n      dup2\n        /* \"#utility.yul\":7482:7496   */\n      lt\n        /* \"#utility.yul\":7474:7682   */\n      iszero\n      tag_137\n      jumpi\n        /* \"#utility.yul\":7567:7576   */\n      dup5\n        /* \"#utility.yul\":7562:7565   */\n      dup10\n        /* \"#utility.yul\":7558:7577   */\n      add\n        /* \"#utility.yul\":7552:7578   */\n      mload\n        /* \"#utility.yul\":7544:7550   */\n      dup3\n        /* \"#utility.yul\":7537:7579   */\n      sstore\n        /* \"#utility.yul\":7618:7619   */\n      0x01\n        /* \"#utility.yul\":7610:7616   */\n      dup3\n        /* \"#utility.yul\":7606:7620   */\n      add\n        /* \"#utility.yul\":7596:7620   */\n      swap2\n      pop\n        /* \"#utility.yul\":7665:7667   */\n      0x20\n        /* \"#utility.yul\":7654:7663   */\n      dup6\n        /* \"#utility.yul\":7650:7668   */\n      add\n        /* \"#utility.yul\":7637:7668   */\n      swap5\n      pop\n        /* \"#utility.yul\":7511:7515   */\n      0x20\n        /* \"#utility.yul\":7508:7509   */\n      dup2\n        /* \"#utility.yul\":7504:7516   */\n      add\n        /* \"#utility.yul\":7499:7516   */\n      swap1\n      pop\n        /* \"#utility.yul\":7474:7682   */\n      jump(tag_135)\n    tag_137:\n        /* \"#utility.yul\":7710:7716   */\n      dup7\n        /* \"#utility.yul\":7701:7708   */\n      dup4\n        /* \"#utility.yul\":7698:7717   */\n      lt\n        /* \"#utility.yul\":7695:7874   */\n      iszero\n      tag_138\n      jumpi\n        /* \"#utility.yul\":7768:7777   */\n      dup5\n        /* \"#utility.yul\":7763:7766   */\n      dup10\n        /* \"#utility.yul\":7759:7778   */\n      add\n        /* \"#utility.yul\":7753:7779   */\n      mload\n        /* \"#utility.yul\":7811:7859   */\n      tag_139\n        /* \"#utility.yul\":7853:7857   */\n      0x1f\n        /* \"#utility.yul\":7845:7851   */\n      dup10\n        /* \"#utility.yul\":7841:7858   */\n      and\n        /* \"#utility.yul\":7830:7839   */\n      dup3\n        /* \"#utility.yul\":7811:7859   */\n      tag_42\n      jump\t// in\n    tag_139:\n        /* \"#utility.yul\":7803:7809   */\n      dup4\n        /* \"#utility.yul\":7796:7860   */\n      sstore\n        /* \"#utility.yul\":7718:7874   */\n      pop\n        /* \"#utility.yul\":7695:7874   */\n    tag_138:\n        /* \"#utility.yul\":7920:7921   */\n      0x01\n        /* \"#utility.yul\":7916:7917   */\n      0x02\n        /* \"#utility.yul\":7908:7914   */\n      dup9\n        /* \"#utility.yul\":7904:7918   */\n      mul\n        /* \"#utility.yul\":7900:7922   */\n      add\n        /* \"#utility.yul\":7894:7898   */\n      dup9\n        /* \"#utility.yul\":7887:7923   */\n      sstore\n        /* \"#utility.yul\":7322:7933   */\n      pop\n      pop\n      pop\n        /* \"#utility.yul\":7285:8172   */\n    tag_130:\n      pop\n        /* \"#utility.yul\":6875:8178   */\n      pop\n      pop\n      pop\n        /* \"#utility.yul\":6783:8178   */\n      pop\n      pop\n      jump\t// out\n\n    auxdata: 0xa2646970667358221220bc21bc2810977233d7b2ed2d1acadc670baf2e6e384abba29ea9cf62cf7e5a7864736f6c634300081a0033\n}\n",
				"bytecode": {
					"linkReferences": {},
					"object": "6080604052348015600e575f80fd5b506106968061001c5f395ff3fe608060405234801561000f575f80fd5b5060043610610029575f3560e01c80633ca6d1001461002d575b5f80fd5b6100476004803603810190610042919061026f565b610049565b005b60015f8082825461005a919061032d565b9250508190555060405180610100016040528086868080601f0160208091040260200160405190810160405280939291908181526020018383808284375f81840152601f19601f82011690508083019250505050505050815260200184848080601f0160208091040260200160405190810160405280939291908181526020018383808284375f81840152601f19601f8201169050808301925050505050505081526020015f81526020015f81526020015f81526020018281526020015f151581526020016001151581525060015f805481526020019081526020015f205f820151815f01908161014b9190610591565b5060208201518160010190816101619190610591565b5060408201518160020155606082015181600301556080820151816004015560a0820151816005015560c0820151816006015f6101000a81548160ff02191690831515021790555060e08201518160060160016101000a81548160ff0219169083151502179055509050505050505050565b5f80fd5b5f80fd5b5f80fd5b5f80fd5b5f80fd5b5f8083601f8401126101fc576101fb6101db565b5b8235905067ffffffffffffffff811115610219576102186101df565b5b602083019150836001820283011115610235576102346101e3565b5b9250929050565b5f819050919050565b61024e8161023c565b8114610258575f80fd5b50565b5f8135905061026981610245565b92915050565b5f805f805f60608688031215610288576102876101d3565b5b5f86013567ffffffffffffffff8111156102a5576102a46101d7565b5b6102b1888289016101e7565b9550955050602086013567ffffffffffffffff8111156102d4576102d36101d7565b5b6102e0888289016101e7565b935093505060406102f38882890161025b565b9150509295509295909350565b7f4e487b71000000000000000000000000000000000000000000000000000000005f52601160045260245ffd5b5f6103378261023c565b91506103428361023c565b925082820190508082111561035a57610359610300565b5b92915050565b5f81519050919050565b7f4e487b71000000000000000000000000000000000000000000000000000000005f52604160045260245ffd5b7f4e487b71000000000000000000000000000000000000000000000000000000005f52602260045260245ffd5b5f60028204905060018216806103db57607f821691505b6020821081036103ee576103ed610397565b5b50919050565b5f819050815f5260205f209050919050565b5f6020601f8301049050919050565b5f82821b905092915050565b5f600883026104507fffffffffffffffffffffffffffffffffffffffffffffffffffffffffffffffff82610415565b61045a8683610415565b95508019841693508086168417925050509392505050565b5f819050919050565b5f61049561049061048b8461023c565b610472565b61023c565b9050919050565b5f819050919050565b6104ae8361047b565b6104c26104ba8261049c565b848454610421565b825550505050565b5f90565b6104d66104ca565b6104e18184846104a5565b505050565b5b81811015610504576104f95f826104ce565b6001810190506104e7565b5050565b601f8211156105495761051a816103f4565b61052384610406565b81016020851015610532578190505b61054661053e85610406565b8301826104e6565b50505b505050565b5f82821c905092915050565b5f6105695f198460080261054e565b1980831691505092915050565b5f610581838361055a565b9150826002028217905092915050565b61059a82610360565b67ffffffffffffffff8111156105b3576105b261036a565b5b6105bd82546103c4565b6105c8828285610508565b5f60209050601f8311600181146105f9575f84156105e7578287015190505b6105f18582610576565b865550610658565b601f198416610607866103f4565b5f5b8281101561062e57848901518255600182019150602085019450602081019050610609565b8683101561064b5784890151610647601f89168261055a565b8355505b6001600288020188555050505b50505050505056fea2646970667358221220bc21bc2810977233d7b2ed2d1acadc670baf2e6e384abba29ea9cf62cf7e5a7864736f6c634300081a0033",
					"opcodes": "PUSH1 0x80 PUSH1 0x40 MSTORE CALLVALUE DUP1 ISZERO PUSH1 0xE JUMPI PUSH0 DUP1 REVERT JUMPDEST POP PUSH2 0x696 DUP1 PUSH2 0x1C PUSH0 CODECOPY PUSH0 RETURN INVALID PUSH1 0x80 PUSH1 0x40 MSTORE CALLVALUE DUP1 ISZERO PUSH2 0xF JUMPI PUSH0 DUP1 REVERT JUMPDEST POP PUSH1 0x4 CALLDATASIZE LT PUSH2 0x29 JUMPI PUSH0 CALLDATALOAD PUSH1 0xE0 SHR DUP1 PUSH4 0x3CA6D100 EQ PUSH2 0x2D JUMPI JUMPDEST PUSH0 DUP1 REVERT JUMPDEST PUSH2 0x47 PUSH1 0x4 DUP1 CALLDATASIZE SUB DUP2 ADD SWAP1 PUSH2 0x42 SWAP2 SWAP1 PUSH2 0x26F JUMP JUMPDEST PUSH2 0x49 JUMP JUMPDEST STOP JUMPDEST PUSH1 0x1 PUSH0 DUP1 DUP3 DUP3 SLOAD PUSH2 0x5A SWAP2 SWAP1 PUSH2 0x32D JUMP JUMPDEST SWAP3 POP POP DUP2 SWAP1 SSTORE POP PUSH1 0x40 MLOAD DUP1 PUSH2 0x100 ADD PUSH1 0x40 MSTORE DUP1 DUP7 DUP7 DUP1 DUP1 PUSH1 0x1F ADD PUSH1 0x20 DUP1 SWAP2 DIV MUL PUSH1 0x20 ADD PUSH1 0x40 MLOAD SWAP1 DUP2 ADD PUSH1 0x40 MSTORE DUP1 SWAP4 SWAP3 SWAP2 SWAP1 DUP2 DUP2 MSTORE PUSH1 0x20 ADD DUP4 DUP4 DUP1 DUP3 DUP5 CALLDATACOPY PUSH0 DUP2 DUP5 ADD MSTORE PUSH1 0x1F NOT PUSH1 0x1F DUP3 ADD AND SWAP1 POP DUP1 DUP4 ADD SWAP3 POP POP POP POP POP POP POP DUP2 MSTORE PUSH1 0x20 ADD DUP5 DUP5 DUP1 DUP1 PUSH1 0x1F ADD PUSH1 0x20 DUP1 SWAP2 DIV MUL PUSH1 0x20 ADD PUSH1 0x40 MLOAD SWAP1 DUP2 ADD PUSH1 0x40 MSTORE DUP1 SWAP4 SWAP3 SWAP2 SWAP1 DUP2 DUP2 MSTORE PUSH1 0x20 ADD DUP4 DUP4 DUP1 DUP3 DUP5 CALLDATACOPY PUSH0 DUP2 DUP5 ADD MSTORE PUSH1 0x1F NOT PUSH1 0x1F DUP3 ADD AND SWAP1 POP DUP1 DUP4 ADD SWAP3 POP POP POP POP POP POP POP DUP2 MSTORE PUSH1 0x20 ADD PUSH0 DUP2 MSTORE PUSH1 0x20 ADD PUSH0 DUP2 MSTORE PUSH1 0x20 ADD PUSH0 DUP2 MSTORE PUSH1 0x20 ADD DUP3 DUP2 MSTORE PUSH1 0x20 ADD PUSH0 ISZERO ISZERO DUP2 MSTORE PUSH1 0x20 ADD PUSH1 0x1 ISZERO ISZERO DUP2 MSTORE POP PUSH1 0x1 PUSH0 DUP1 SLOAD DUP2 MSTORE PUSH1 0x20 ADD SWAP1 DUP2 MSTORE PUSH1 0x20 ADD PUSH0 KECCAK256 PUSH0 DUP3 ADD MLOAD DUP2 PUSH0 ADD SWAP1 DUP2 PUSH2 0x14B SWAP2 SWAP1 PUSH2 0x591 JUMP JUMPDEST POP PUSH1 0x20 DUP3 ADD MLOAD DUP2 PUSH1 0x1 ADD SWAP1 DUP2 PUSH2 0x161 SWAP2 SWAP1 PUSH2 0x591 JUMP JUMPDEST POP PUSH1 0x40 DUP3 ADD MLOAD DUP2 PUSH1 0x2 ADD SSTORE PUSH1 0x60 DUP3 ADD MLOAD DUP2 PUSH1 0x3 ADD SSTORE PUSH1 0x80 DUP3 ADD MLOAD DUP2 PUSH1 0x4 ADD SSTORE PUSH1 0xA0 DUP3 ADD MLOAD DUP2 PUSH1 0x5 ADD SSTORE PUSH1 0xC0 DUP3 ADD MLOAD DUP2 PUSH1 0x6 ADD PUSH0 PUSH2 0x100 EXP DUP2 SLOAD DUP2 PUSH1 0xFF MUL NOT AND SWAP1 DUP4 ISZERO ISZERO MUL OR SWAP1 SSTORE POP PUSH1 0xE0 DUP3 ADD MLOAD DUP2 PUSH1 0x6 ADD PUSH1 0x1 PUSH2 0x100 EXP DUP2 SLOAD DUP2 PUSH1 0xFF MUL NOT AND SWAP1 DUP4 ISZERO ISZERO MUL OR SWAP1 SSTORE POP SWAP1 POP POP POP POP POP POP POP JUMP JUMPDEST PUSH0 DUP1 REVERT JUMPDEST PUSH0 DUP1 REVERT JUMPDEST PUSH0 DUP1 REVERT JUMPDEST PUSH0 DUP1 REVERT JUMPDEST PUSH0 DUP1 REVERT JUMPDEST PUSH0 DUP1 DUP4 PUSH1 0x1F DUP5 ADD SLT PUSH2 0x1FC JUMPI PUSH2 0x1FB PUSH2 0x1DB JUMP JUMPDEST JUMPDEST DUP3 CALLDATALOAD SWAP1 POP PUSH8 0xFFFFFFFFFFFFFFFF DUP2 GT ISZERO PUSH2 0x219 JUMPI PUSH2 0x218 PUSH2 0x1DF JUMP JUMPDEST JUMPDEST PUSH1 0x20 DUP4 ADD SWAP2 POP DUP4 PUSH1 0x1 DUP3 MUL DUP4 ADD GT ISZERO PUSH2 0x235 JUMPI PUSH2 0x234 PUSH2 0x1E3 JUMP JUMPDEST JUMPDEST SWAP3 POP SWAP3 SWAP1 POP JUMP JUMPDEST PUSH0 DUP2 SWAP1 POP SWAP2 SWAP1 POP JUMP JUMPDEST PUSH2 0x24E DUP2 PUSH2 0x23C JUMP JUMPDEST DUP2 EQ PUSH2 0x258 JUMPI PUSH0 DUP1 REVERT JUMPDEST POP JUMP JUMPDEST PUSH0 DUP2 CALLDATALOAD SWAP1 POP PUSH2 0x269 DUP2 PUSH2 0x245 JUMP JUMPDEST SWAP3 SWAP2 POP POP JUMP JUMPDEST PUSH0 DUP1 PUSH0 DUP1 PUSH0 PUSH1 0x60 DUP7 DUP9 SUB SLT ISZERO PUSH2 0x288 JUMPI PUSH2 0x287 PUSH2 0x1D3 JUMP JUMPDEST JUMPDEST PUSH0 DUP7 ADD CALLDATALOAD PUSH8 0xFFFFFFFFFFFFFFFF DUP2 GT ISZERO PUSH2 0x2A5 JUMPI PUSH2 0x2A4 PUSH2 0x1D7 JUMP JUMPDEST JUMPDEST PUSH2 0x2B1 DUP9 DUP3 DUP10 ADD PUSH2 0x1E7 JUMP JUMPDEST SWAP6 POP SWAP6 POP POP PUSH1 0x20 DUP7 ADD CALLDATALOAD PUSH8 0xFFFFFFFFFFFFFFFF DUP2 GT ISZERO PUSH2 0x2D4 JUMPI PUSH2 0x2D3 PUSH2 0x1D7 JUMP JUMPDEST JUMPDEST PUSH2 0x2E0 DUP9 DUP3 DUP10 ADD PUSH2 0x1E7 JUMP JUMPDEST SWAP4 POP SWAP4 POP POP PUSH1 0x40 PUSH2 0x2F3 DUP9 DUP3 DUP10 ADD PUSH2 0x25B JUMP JUMPDEST SWAP2 POP POP SWAP3 SWAP6 POP SWAP3 SWAP6 SWAP1 SWAP4 POP JUMP JUMPDEST PUSH32 0x4E487B7100000000000000000000000000000000000000000000000000000000 PUSH0 MSTORE PUSH1 0x11 PUSH1 0x4 MSTORE PUSH1 0x24 PUSH0 REVERT JUMPDEST PUSH0 PUSH2 0x337 DUP3 PUSH2 0x23C JUMP JUMPDEST SWAP2 POP PUSH2 0x342 DUP4 PUSH2 0x23C JUMP JUMPDEST SWAP3 POP DUP3 DUP3 ADD SWAP1 POP DUP1 DUP3 GT ISZERO PUSH2 0x35A JUMPI PUSH2 0x359 PUSH2 0x300 JUMP JUMPDEST JUMPDEST SWAP3 SWAP2 POP POP JUMP JUMPDEST PUSH0 DUP2 MLOAD SWAP1 POP SWAP2 SWAP1 POP JUMP JUMPDEST PUSH32 0x4E487B7100000000000000000000000000000000000000000000000000000000 PUSH0 MSTORE PUSH1 0x41 PUSH1 0x4 MSTORE PUSH1 0x24 PUSH0 REVERT JUMPDEST PUSH32 0x4E487B7100000000000000000000000000000000000000000000000000000000 PUSH0 MSTORE PUSH1 0x22 PUSH1 0x4 MSTORE PUSH1 0x24 PUSH0 REVERT JUMPDEST PUSH0 PUSH1 0x2 DUP3 DIV SWAP1 POP PUSH1 0x1 DUP3 AND DUP1 PUSH2 0x3DB JUMPI PUSH1 0x7F DUP3 AND SWAP2 POP JUMPDEST PUSH1 0x20 DUP3 LT DUP2 SUB PUSH2 0x3EE JUMPI PUSH2 0x3ED PUSH2 0x397 JUMP JUMPDEST JUMPDEST POP SWAP2 SWAP1 POP JUMP JUMPDEST PUSH0 DUP2 SWAP1 POP DUP2 PUSH0 MSTORE PUSH1 0x20 PUSH0 KECCAK256 SWAP1 POP SWAP2 SWAP1 POP JUMP JUMPDEST PUSH0 PUSH1 0x20 PUSH1 0x1F DUP4 ADD DIV SWAP1 POP SWAP2 SWAP1 POP JUMP JUMPDEST PUSH0 DUP3 DUP3 SHL SWAP1 POP SWAP3 SWAP2 POP POP JUMP JUMPDEST PUSH0 PUSH1 0x8 DUP4 MUL PUSH2 0x450 PUSH32 0xFFFFFFFFFFFFFFFFFFFFFFFFFFFFFFFFFFFFFFFFFFFFFFFFFFFFFFFFFFFFFFFF DUP3 PUSH2 0x415 JUMP JUMPDEST PUSH2 0x45A DUP7 DUP4 PUSH2 0x415 JUMP JUMPDEST SWAP6 POP DUP1 NOT DUP5 AND SWAP4 POP DUP1 DUP7 AND DUP5 OR SWAP3 POP POP POP SWAP4 SWAP3 POP POP POP JUMP JUMPDEST PUSH0 DUP2 SWAP1 POP SWAP2 SWAP1 POP JUMP JUMPDEST PUSH0 PUSH2 0x495 PUSH2 0x490 PUSH2 0x48B DUP5 PUSH2 0x23C JUMP JUMPDEST PUSH2 0x472 JUMP JUMPDEST PUSH2 0x23C JUMP JUMPDEST SWAP1 POP SWAP2 SWAP1 POP JUMP JUMPDEST PUSH0 DUP2 SWAP1 POP SWAP2 SWAP1 POP JUMP JUMPDEST PUSH2 0x4AE DUP4 PUSH2 0x47B JUMP JUMPDEST PUSH2 0x4C2 PUSH2 0x4BA DUP3 PUSH2 0x49C JUMP JUMPDEST DUP5 DUP5 SLOAD PUSH2 0x421 JUMP JUMPDEST DUP3 SSTORE POP POP POP POP JUMP JUMPDEST PUSH0 SWAP1 JUMP JUMPDEST PUSH2 0x4D6 PUSH2 0x4CA JUMP JUMPDEST PUSH2 0x4E1 DUP2 DUP5 DUP5 PUSH2 0x4A5 JUMP JUMPDEST POP POP POP JUMP JUMPDEST JUMPDEST DUP2 DUP2 LT ISZERO PUSH2 0x504 JUMPI PUSH2 0x4F9 PUSH0 DUP3 PUSH2 0x4CE JUMP JUMPDEST PUSH1 0x1 DUP2 ADD SWAP1 POP PUSH2 0x4E7 JUMP JUMPDEST POP POP JUMP JUMPDEST PUSH1 0x1F DUP3 GT ISZERO PUSH2 0x549 JUMPI PUSH2 0x51A DUP2 PUSH2 0x3F4 JUMP JUMPDEST PUSH2 0x523 DUP5 PUSH2 0x406 JUMP JUMPDEST DUP2 ADD PUSH1 0x20 DUP6 LT ISZERO PUSH2 0x532 JUMPI DUP2 SWAP1 POP JUMPDEST PUSH2 0x546 PUSH2 0x53E DUP6 PUSH2 0x406 JUMP JUMPDEST DUP4 ADD DUP3 PUSH2 0x4E6 JUMP JUMPDEST POP POP JUMPDEST POP POP POP JUMP JUMPDEST PUSH0 DUP3 DUP3 SHR SWAP1 POP SWAP3 SWAP2 POP POP JUMP JUMPDEST PUSH0 PUSH2 0x569 PUSH0 NOT DUP5 PUSH1 0x8 MUL PUSH2 0x54E JUMP JUMPDEST NOT DUP1 DUP4 AND SWAP2 POP POP SWAP3 SWAP2 POP POP JUMP JUMPDEST PUSH0 PUSH2 0x581 DUP4 DUP4 PUSH2 0x55A JUMP JUMPDEST SWAP2 POP DUP3 PUSH1 0x2 MUL DUP3 OR SWAP1 POP SWAP3 SWAP2 POP POP JUMP JUMPDEST PUSH2 0x59A DUP3 PUSH2 0x360 JUMP JUMPDEST PUSH8 0xFFFFFFFFFFFFFFFF DUP2 GT ISZERO PUSH2 0x5B3 JUMPI PUSH2 0x5B2 PUSH2 0x36A JUMP JUMPDEST JUMPDEST PUSH2 0x5BD DUP3 SLOAD PUSH2 0x3C4 JUMP JUMPDEST PUSH2 0x5C8 DUP3 DUP3 DUP6 PUSH2 0x508 JUMP JUMPDEST PUSH0 PUSH1 0x20 SWAP1 POP PUSH1 0x1F DUP4 GT PUSH1 0x1 DUP2 EQ PUSH2 0x5F9 JUMPI PUSH0 DUP5 ISZERO PUSH2 0x5E7 JUMPI DUP3 DUP8 ADD MLOAD SWAP1 POP JUMPDEST PUSH2 0x5F1 DUP6 DUP3 PUSH2 0x576 JUMP JUMPDEST DUP7 SSTORE POP PUSH2 0x658 JUMP JUMPDEST PUSH1 0x1F NOT DUP5 AND PUSH2 0x607 DUP7 PUSH2 0x3F4 JUMP JUMPDEST PUSH0 JUMPDEST DUP3 DUP2 LT ISZERO PUSH2 0x62E JUMPI DUP5 DUP10 ADD MLOAD DUP3 SSTORE PUSH1 0x1 DUP3 ADD SWAP2 POP PUSH1 0x20 DUP6 ADD SWAP5 POP PUSH1 0x20 DUP2 ADD SWAP1 POP PUSH2 0x609 JUMP JUMPDEST DUP7 DUP4 LT ISZERO PUSH2 0x64B JUMPI DUP5 DUP10 ADD MLOAD PUSH2 0x647 PUSH1 0x1F DUP10 AND DUP3 PUSH2 0x55A JUMP JUMPDEST DUP4 SSTORE POP JUMPDEST PUSH1 0x1 PUSH1 0x2 DUP9 MUL ADD DUP9 SSTORE POP POP POP JUMPDEST POP POP POP POP POP POP JUMP INVALID LOG2 PUSH5 0x6970667358 0x22 SLT KECCAK256 0xBC 0x21 0xBC 0x28 LT SWAP8 PUSH19 0x33D7B2ED2D1ACADC670BAF2E6E384ABBA29EA9 0xCF PUSH3 0xCF7E5A PUSH25 0x64736F6C634300081A00330000000000000000000000000000 "
				},
				"gasEstimates": {
					"creation": {
						"codeDepositCost": "337200",
						"executionCost": "372",
						"totalCost": "337572"
					},
					"external": {
						"create(string,string,uint256)": "infinite"
					}
				},
				"methodIdentifiers": {
					"create(string,string,uint256)": "3ca6d100"
				}
			},
			"storageLayout": {
				"storage": [
					{
						"astId": 3,
						"contract": "contracts/Counter.sol:ProposalContract",
						"label": "counter",
						"offset": 0,
						"slot": "0",
						"type": "t_uint256"
					},
					{
						"astId": 25,
						"contract": "contracts/Counter.sol:ProposalContract",
						"label": "proposal_history",
						"offset": 0,
						"slot": "1",
						"type": "t_mapping(t_uint256,t_struct(Proposal)20_storage)"
					}
				],
				"types": {
					"t_bool": {
						"encoding": "inplace",
						"label": "bool",
						"numberOfBytes": "1"
					},
					"t_mapping(t_uint256,t_struct(Proposal)20_storage)": {
						"encoding": "mapping",
						"key": "t_uint256",
						"label": "mapping(uint256 => struct ProposalContract.Proposal)",
						"numberOfBytes": "32",
						"value": "t_struct(Proposal)20_storage"
					},
					"t_string_storage": {
						"encoding": "bytes",
						"label": "string",
						"numberOfBytes": "32"
					},
					"t_struct(Proposal)20_storage": {
						"encoding": "inplace",
						"label": "struct ProposalContract.Proposal",
						"members": [
							{
								"astId": 5,
								"contract": "contracts/Counter.sol:ProposalContract",
								"label": "title",
								"offset": 0,
								"slot": "0",
								"type": "t_string_storage"
							},
							{
								"astId": 7,
								"contract": "contracts/Counter.sol:ProposalContract",
								"label": "description",
								"offset": 0,
								"slot": "1",
								"type": "t_string_storage"
							},
							{
								"astId": 9,
								"contract": "contracts/Counter.sol:ProposalContract",
								"label": "approve",
								"offset": 0,
								"slot": "2",
								"type": "t_uint256"
							},
							{
								"astId": 11,
								"contract": "contracts/Counter.sol:ProposalContract",
								"label": "reject",
								"offset": 0,
								"slot": "3",
								"type": "t_uint256"
							},
							{
								"astId": 13,
								"contract": "contracts/Counter.sol:ProposalContract",
								"label": "pass",
								"offset": 0,
								"slot": "4",
								"type": "t_uint256"
							},
							{
								"astId": 15,
								"contract": "contracts/Counter.sol:ProposalContract",
								"label": "total_vote_to_end",
								"offset": 0,
								"slot": "5",
								"type": "t_uint256"
							},
							{
								"astId": 17,
								"contract": "contracts/Counter.sol:ProposalContract",
								"label": "current_state",
								"offset": 0,
								"slot": "6",
								"type": "t_bool"
							},
							{
								"astId": 19,
								"contract": "contracts/Counter.sol:ProposalContract",
								"label": "is_active",
								"offset": 1,
								"slot": "6",
								"type": "t_bool"
							}
						],
						"numberOfBytes": "224"
					},
					"t_uint256": {
						"encoding": "inplace",
						"label": "uint256",
						"numberOfBytes": "32"
					}
				}
			},
			"userdoc": {
				"kind": "user",
				"methods": {},
				"version": 1
			}
		}
	}
}